:1000000019C020C01FC01EC01DC01CC01BC01AC00C
:1000100019C018C017C016C015C014C013C012C034
:1000200011C010C00FC00EC00DC00CC00BC00AC064
:1000300009C008C011241FBECFEFD4E0DEBFCDBF82
:1000400002D01EC0DDCF17B818B88FEF84B915B82D
:1000500020E030E040E553EC6FEF309B0AC080E0D9
:1000600090E0232B11F481E090E09C01CA010197FC
:10007000F1F72130310511F465B9EFCF15B8EDCFA7
:04008000F894FFCF22
:00000001FF
