:1000000019C020C01FC01EC01DC01CC01BC01AC00C
:1000100019C018C017C016C015C014C013C012C034
:1000200011C010C00FC00EC00DC00CC00BC00AC064
:1000300009C008C011241FBECFEFD4E0DEBFCDBF82
:1000400002D02AC0DDCF389A5098409860E070E026
:10005000AB01489BFECF409A88B120E030E04130B0
:10006000510511F421E030E090E028233923232BBF
:1000700011F040E050E0409888B161E070E020E08D
:1000800030E04115510511F421E030E090E02823E3
:0C0090003923232BE9F6DDCFF894FFCFD5
:00000001FF
