:1000000019C020C01FC01EC01DC01CC01BC01AC00C
:1000100019C018C017C016C015C014C013C012C034
:1000200011C010C00FC00EC00DC00CC00BC00AC064
:1000300009C008C011241FBECFEFD4E0DEBFCDBF82
:1000400022D08CC0DDCF2F923F92F10121E030E031
:1000500002C0220F331F8A95E2F7322F309540E01D
:100060000CC0842F90E0861797071CF485B183237A
:1000700002C085B1822B85B94F5F4F3F91F7468310
:100080003F902F9008952F923F920F931F93DF93ED
:10009000CF93CDB7DEB727970FB6F894DEBF0FBE6C
:1000A000CDBF1B821A8219821C828FEF84B985B959
:1000B0001AB81BB880917C00806480937C0080918A
:1000C0007A00876080937A0080917A0080688093BC
:1000D0007A008E010F5F1F4F02C03E832D836B811C
:1000E000180181E090E070E0AEDF6A8183E090E08B
:1000F00070E0A9DF698182E090E070E0A4DF89B15F
:100100004A988C81833008F01C8280917A00806448
:1001100080937A0080917A0086FDFCCF2091780050
:10012000309179008C81882339F4C901969587959F
:10013000969587958B83D1CF813039F4C9019695F7
:100140008795969587958A83C8CF823031F6C90105
:1001500096958795969587958983BFCFF894FFCF1D
:00000001FF
