:1000000019C033C032C031C030C02FC02EC02DC087
:100010002CC02BC02AC029C028C027C026C025C09C
:1000200024C023C022C021C020C01FC01EC01DC0CC
:100030001CC01BC011241FBECFEFD4E0DEBFCDBF5C
:1000400012E0A8E0B2E001C01D92AA30B107E1F7CA
:1000500012E0A0E0B1E0E0E8FEE002C005900D9201
:10006000A830B107D9F7BED309C7CACFA0E0B0E026
:10007000EBE3F0E0CCC6DC012B01FA019C9192305D
:1000800008F439C1EB018881823008F433C194301F
:1000900069F4843009F02FC111969C9111978981E0
:1000A000981709F428C1A0E0B1E025C1843009F413
:1000B00021C18230A9F4923009F01DC19A01AD012D
:1000C00088E0EA010990AE01E90109929E018150A0
:1000D000C1F7E201898111969C918923818308C12E
:1000E000923009F407C112962D903C901397EB01C2
:1000F0008A819B811496AD90BD90CD90DC9017972E
:10010000EC80FD800E811F819101281B390BB90104
:1001100037FF04C066277727621B730B60327105B7
:100120000CF061C0121613066CF537014801062E5B
:1001300004C096948794779467940A94D2F721E048
:1001400030E040E050E004C0220F331F441F551F31
:100150006A95D2F721503040404050402E213F2137
:1001600040235123211531054105510521F021E09E
:1001700030E040E050E079018A01E628F7280829BC
:1001800019293CC0232BD1F1260E371E350146011B
:10019000062E04C096948794779467940A94D2F7B5
:1001A00021E030E040E050E004C0220F331F441F44
:1001B000551F6A95D2F721503040404050402A21C7
:1001C0003B214C215D21211531054105510521F0CF
:1001D00021E030E040E050E059016A01A628B7284C
:1001E000C828D9280BC0821593052CF01C01AA241D
:1001F000BB24650103C0EE24FF24870111969C9166
:10020000D20111968C91981709F445C0992339F0C1
:10021000A80197012A193B094C095D0906C0A601EE
:1002200095012E193F09400B510B57FD08C0118253
:100230003382228224833583468357831DC081E025
:1002400081833382228288279927DC01821B930BCA
:10025000A40BB50B84839583A683B7830DC0220FAF
:10026000331F441F551F2483358346835783828160
:1002700093810197938382832481358146815781BD
:10028000DA01C9010197A109B1098F5F9F4FAF4FF3
:10029000BF4328F30BC0918333822282EA0CFB1CFC
:1002A0000C1D1D1DE482F5820683178383E0808385
:1002B000248135814681578157FF1AC0C901AA2779
:1002C00097FDA095BA2F81709070A070B070569570
:1002D000479537952795822B932BA42BB52B848399
:1002E0009583A683B78382819381019693838283CA
:1002F000DF0101C0D201CD01CDB7DEB7E2E1A3C578
:10030000A0E2B0E0E5E8F1E08EC569837A838B83F3
:100310009C832D833E834F835887E9E0EE2EF12C9A
:10032000EC0EFD1ECE010196B701D5D18E010F5EF8
:100330001F4FCE010596B801CED18A8991E0892759
:100340008A8BC701B801AE01475E5F4F8FDEEED0EA
:10035000A096E6E084C5A0E2B0E0E0EBF1E063C582
:1003600069837A838B839C832D833E834F83588755
:10037000F9E0EF2EF12CEC0EFD1ECE010196B70137
:10038000AAD18E010F5E1F4FCE010596B801A3D1F1
:10039000C701B801AE01475E5F4F68DEC7D0A096C7
:1003A000E6E05DC5A8E0B0E0E7EDF1E038C57B012F
:1003B0008C01611571058105910519F482E089832D
:1003C0005FC083E089838EE1C82ED12CDC82CB8292
:1003D000ED82FE820F831887C801B70158D0FC0157
:1003E0003197F7FF3BC0222733272E1B3F0B5701C6
:1003F0006801022E04C0D694C794B794A7940A94B7
:10040000D2F740E050E060E070E081E090E0A0E0F2
:10041000B0E004C0880F991FAA1FBB1F2A95D2F70E
:100420000197A109B1098E219F21A023B123009733
:10043000A105B10521F041E050E060E070E04A29FB
:100440005B296C297D294D835E836F8378878EE1DC
:1004500090E08E1B9F0B9C838B8312C0309781F0A2
:100460000E2E04C0EE0CFF1C001F111F0A94D2F7C1
:10047000ED82FE820F831887CE1ADF0ADC82CB82E0
:100480001A82CE01019652D02896EAE0E4C4EF9297
:10049000FF920F931F937B018C0180E0E81680E0B0
:1004A000F80681E0080780E0180788F48FEFE81667
:1004B000F1040105110531F028F088E090E0A0E09A
:1004C000B0E017C080E090E0A0E0B0E012C080E0B3
:1004D000E81680E0F80680E0080781E0180728F0B9
:1004E00088E190E0A0E0B0E004C080E190E0A0E00E
:1004F000B0E020E230E040E050E0281B390B4A0B2E
:100500005B0B04C016950795F794E7948A95D2F78C
:10051000F701E85FFE4F8081281B3109410951092D
:10052000C9011F910F91FF90EF900895DF92EF9214
:10053000FF920F931F93FC01E480F58006811781E1
:10054000D1808081823048F480E090E0A0E1B0E08A
:10055000E82AF92A0A2B1B2BA5C0843009F49FC076
:10056000823021F4EE24FF24870105C0E114F10458
:100570000105110519F4E0E0F0E096C06281738195
:100580009FEF623879070CF05BC022E83FEF261B33
:10059000370B2A3131052CF020E030E040E050E00C
:1005A0002AC0B801A701022E04C076956795579519
:1005B00047950A94D2F781E090E0A0E0B0E004C053
:1005C000880F991FAA1FBB1F2A95D2F70197A1096F
:1005D000B1098E219F21A023B1230097A105B10568
:1005E00021F081E090E0A0E0B0E09A01AB01282B7F
:1005F000392B4A2B5B2BDA01C9018F779070A070E1
:10060000B07080349105A105B10539F427FF09C008
:10061000205C3F4F4F4F5F4F04C0215C3F4F4F4F17
:100620005F4FE0E0F0E02030A0E03A07A0E04A07AA
:10063000A0E45A0710F0E1E0F0E079018A0127C058
:100640006038710564F5FB01E158FF4FD801C7011F
:100650008F779070A070B07080349105A105B105BE
:1006600039F4E7FE0DC080E490E0A0E0B0E004C003
:100670008FE390E0A0E0B0E0E80EF91E0A1F1B1F18
:1006800017FF05C016950795F794E794319687E014
:1006900016950795F794E7948A95D1F705C0EE244F
:1006A000FF248701EFEFF0E06E2F679566276795CF
:1006B000902F9F77D794DD24D7948E2F8695492F3E
:1006C000462B582F5D29B701CA011F910F91FF904A
:1006D000EF90DF900895FC01DB0140815181228180
:1006E000622F6F7770E0221F2227221F9381892FAC
:1006F000880F822B282F30E0991F9927991F119678
:100700009C93119721153105A9F5411551056105F6
:10071000710511F482E037C082E89FEF13969C9335
:100720008E9312979A01AB0167E0220F331F441F8B
:10073000551F6A95D1F783E08C930DC0220F331FAC
:10074000441F551F12968D919C91139701971396F4
:100750009C938E931297203080E0380780E0480702
:1007600080E4580758F314962D933D934D935C9372
:10077000179708952F3F310579F44115510561050B
:10078000710519F484E08C93089564FF03C081E03F
:100790008C9312C01C9210C02F57304013963C937C
:1007A0002E93129783E08C9387E0440F551F661FAA
:1007B000771F8A95D1F7706414964D935D936D936E
:1007C0007C93179708950BC020E000000000000004
:1007D0000000000000002F5F2A35B9F7019700974D
:1007E00099F708952F923F924F925F926F927F9266
:1007F0008F929F92AF92BF92CF92DF92EF92FF9231
:100800000F931F93DF93CF93CDB7DEB764970FB6E7
:10081000F894DEBF0FBECDBF2FEF2AB924B925B99A
:100820008FE390E09A83898386E090E09C838B83BA
:100830008BE590E09E838D838FE490E098878F8393
:1008400086E690E09A8789878DE690E09C878B8783
:100850008DE790E09E878D8787E090E0988B8F876B
:100860008FE790E09A8B898B8FE690E09C8B8B8B47
:100870002AB924B925B980917C00806480937C00DA
:1008800080917A00876080937A0080917A008068F6
:1008900080937A00BF80B0944D81409500E010E0D5
:1008A000CC24DD24A8EC6A2E712C4E010894811C06
:1008B000911CF0E2EF2EFEE4FF2EECE22E2E7AE108
:1008C000372E6CE1462E5AE0552E3CE0A32E03C095
:1008D00021E0C22ED12C80917A00806480937A002E
:1008E00080917A0086FDFCCF80917800909179000C
:1008F000189B11C020ED37E0F3013197F1F721503B
:100900003040D1F720E030E051E0C516D10411F0BD
:1009100021E030E06901189821E0C216D10421F5E8
:100920000731110539F455B8BBB8C7010197F1F784
:10093000A5B818C00831110554F035B8BBB8C701C7
:100940000197F1F745B84BB9C7010197F1F70731A6
:1009500011050CF0C0CF5AE255B9BBB8C7010197D9
:10096000F1F725B84BB927C0C114D10409F0B0CFB5
:100970006EE170E025D28B0182E385B9CB016AE09C
:1009800070E032D2FC01EE0FFF1FE80DF91D8081EF
:1009900080958BB9C7010197F1F724E325B9C80108
:1009A0006AE070E021D2FB01EE0FFF1FE80DF91D98
:1009B000808180958BB9C7010197F1F78CCF982F73
:1009C000FB0184EA8093BC008091BC0087FFFCCFD0
:1009D0008091B9008B7F883009F052C080E9809304
:1009E000BB0084E88093BC008091BC0087FFFCCFF3
:1009F0008091B9008B7F883109F042C09093BB0091
:100A000084E88093BC008091BC0087FFFCCF80917C
:100A1000B9008B7F8832A1F584EA8093BC00809175
:100A2000BC0087FFFCCF8091B9008B7F803141F5FE
:100A300081E98093BB0084E88093BC008091BC0076
:100A400087FFFCCF8091B9008B7F8034C9F410C040
:100A50004150504019F49093BC0002C02093BC0058
:100A60008091BC0087FFFCCF8091BB00819302C0C6
:100A700024EC94E84115510559F784E98093BC00B2
:100A80000895982FFB0184EA8093BC008091BC00FC
:100A900087FFFCCF8091B9008B7F8830B9F580E962
:100AA0008093BB0084E88093BC008091BC0087FFEA
:100AB000FCCF8091B9008B7F883141F59093BB00CA
:100AC00084E88093BC008091BC0087FFFCCF8091BC
:100AD000B9008B7F8832D1F49A0194E811C08081EB
:100AE0008093BB009093BC008091BC0087FFFCCF3B
:100AF0008091B900215030408B7F883239F4319693
:100B00002115310561F784E98093BC0008950895AB
:100B1000EF92FF921F93DF93CF930F92CDB7DEB783
:100B2000182F81E07E010894E11CF11CB70141E01F
:100B300050E045DF17951127179589818F77812B15
:100B4000898381E0B70141E050E09BDF0F90CF91B6
:100B5000DF911F91FF90EF900895EF92FF921F9306
:100B6000DF93CF930F92CDB7DEB7182F81E07E01D0
:100B70000894E11CF11CB70141E050E020DF129520
:100B8000110F107E89818F79812B898381E0B701D4
:100B900041E050E076DF0F90CF91DF911F91FF9001
:100BA000EF900895EF92FF921F93DF93CF930F92F0
:100BB000CDB7DEB7182F81E07E010894E11CF11C4F
:100BC000B70141E050E0FBDE110F110F110F8981D9
:100BD000877E812B898381E0B70141E050E051DFBE
:100BE0000F90CF91DF911F91FF90EF900895FF92AA
:100BF0000F931F93DF93CF930F92CDB7DEB7F82EED
:100C000081E08E010F5F1F4FB80141E050E0D7DE59
:100C100089818E7F8F29898381E0B80141E050E08E
:100C200030DF0F90CF91DF911F910F91FF900895CA
:100C3000EF92FF921F93DF93CF930F92CDB7DEB762
:100C4000182F81E07E010894E11CF11CB70141E0FE
:100C500050E0B5DE110F89818D7F812B898381E082
:100C6000B70141E050E00DDF0F90CF91DF911F9170
:100C7000FF90EF900895EF92FF921F93DF93CF9331
:100C80000F92CDB7DEB7182F81E07E010894E11CEA
:100C9000F11CB70141E050E092DE110F110F898184
:100CA0008B7F812B898381E0B70141E050E0E9DE51
:100CB0000F90CF91DF911F91FF90EF900895909347
:100CC0000902809308020895DF93CF9300D000D0EB
:100CD000CDB7DEB79A8389837C836B8382E0BE01C4
:100CE0006F5F7F4F42E050E0CCDE83E0BE016D5F7E
:100CF0007F4F42E050E0C5DE0F900F900F900F90B5
:100D0000CF91DF910895DF93CF930F92CDB7DEB7E8
:100D100081E0BE016F5F7F4F41E050E050DE89818E
:100D20000F90CF91DF910895DF93CF9300D0CDB78F
:100D3000DEB780E0BE016F5F7F4F42E050E03FDEF4
:100D400089819A810F900F90CF91DF9108950F9331
:100D50001F93DF93CF9300D0CDB7DEB780E0BE0105
:100D60006F5F7F4F42E050E02ADE09811A81B801AF
:100D7000707080E090E016DB012F17FF05C020E0C7
:100D800030E040E05FE3E7DA06FF05C020E030E056
:100D900040E85EE3E0DA05FF05C020E030E040E037
:100DA0005EE3D9DA04FF05C020E030E040E85DE30F
:100DB000D2DA0F900F90CF91DF911F910F9108958C
:100DC000AA1BBB1B51E107C0AA1FBB1FA617B70771
:100DD00010F0A61BB70B881F991F5A95A9F780958D
:100DE0009095BC01CD01089597FB092E07260AD0E6
:100DF00077FD04D0E5DF06D000201AF470956195E8
:100E00007F4F0895F6F7909581959F4F08952F9203
:100E10003F924F925F926F927F928F929F92AF928A
:100E2000BF92CF92DF92EF92FF920F931F93CF93D7
:100E3000DF93CDB7DEB7CA1BDB0B0FB6F894DEBF6E
:100E40000FBECDBF09942A88398848885F846E8494
:100E50007D848C849B84AA84B984C884DF80EE80DE
:100E6000FD800C811B81AA81B981CE0FD11D0FB6E7
:100E7000F894DEBF0FBECDBFED010895F894FFCF0B
:100E80000000000000000000000102020303030351
:100E9000040404040404040405050505050505050A
:100EA00005050505050505050606060606060606EA
:100EB00006060606060606060606060606060606D2
:100EC00006060606060606060707070707070707BA
:100ED00007070707070707070707070707070707A2
:100EE0000707070707070707070707070707070792
:100EF0000707070707070707070707070707070782
:100F00000707070707070707080808080808080869
:100F10000808080808080808080808080808080851
:100F20000808080808080808080808080808080841
:100F30000808080808080808080808080808080831
:100F40000808080808080808080808080808080821
:100F50000808080808080808080808080808080811
:100F60000808080808080808080808080808080801
:100F700008080808080808080808080808080808F1
:080F8000080808080808080829
:00000001FF
