:1000000019C02BC02AC029C028C027C026C025C0BF
:1000100024C023C022C021C020C01FC01EC01DC0DC
:100020001CC01BC01AC019C018C017C016C015C00C
:1000300014C013C011241FBECFEFD4E0DEBFCDBF6C
:1000400011E0A0E0B1E0E2E1F2E002C005900D9223
:10005000A431B107D9F7BED0DAC0D2CF662311F0F0
:10006000449A01C0449887FF02C02F9A01C02F987C
:10007000982F86FF02C02E9A01C02E9895FF02C0CD
:100080002D9A01C02D9894FF02C02C9A01C02C9883
:100090000000459A0000459893FF02C02F9A01C0C6
:1000A0002F9892FF02C02E9A01C02E9891FF02C095
:1000B0002D9A01C02D9890FF02C02C9A01C02C9857
:1000C0000000459A000045982F9A2E9A2D9A2C9A56
:1000D000662341F4843030F489E991E00197F1F727
:1000E00000C003C09DE09A95F1F70000089561E01B
:1000F000B5DF0895CF93DF93EC0101C0F8DFFE0177
:10010000219684918823D1F7DF91CF910895CF93E1
:10011000DF93EC0101C0EBDF89918823E1F7DF91E8
:10012000CF91089560E09ADF089582E0FBDF0895A3
:1001300081E0F8DF08958058F5DF08953D9A3C9AF4
:10014000279A269A259A249A459844982F9A2E9A67
:100150002D9A2C9A85EA9EE00197F1F700C00000E5
:100160002F982E980000459A0000459880E094E072
:100170000197F1F700C00000459A0000459891E210
:100180009A95F1F70000459A000045988DE08A9510
:10019000F1F700002C980000459A000045989DE07A
:1001A0009A95F1F700002C980000459A00004598B8
:1001B00000002F9A0000459A000045988DE08A952E
:1001C000F1F7000088E0AEDFB3DF86E0ABDF8CE064
:1001D000A9DF0895CF93DF93C9E1D0E0AFDFA8DFB7
:1001E00080E091E094DF80E197E2FE013197F1F742
:1001F0000197D9F7A3DF9CDF8EE091E088DF80E1F3
:1002000097E2FE013197F1F70197D9F7E7CFF8941C
:02021000FFCF1E
:1002120073616E646F722069732065656E0062613E
:040222006173000004
:00000001FF
