:1000000019C020C01FC01EC01DC01CC01BC01AC00C
:1000100019C018C017C016C015C014C013C012C034
:1000200011C010C00FC00EC00DC00CC00BC00AC064
:1000300009C008C011241FBECFEFD4E0DEBFCDBF82
:1000400002D090C0DDCFDF93CF93CDB7DEB7A097BE
:100050000FB6F894DEBF0FBECDBF8FE390E09A835A
:10006000898386E090E09C838B838BE590E09E8380
:100070008D838FE490E098878F8386E690E09A875F
:1000800089878DE690E09C878B878DE790E09E873F
:100090008D8787E090E0988B8F878FE790E09A8B31
:1000A000898B8FE690E09C8B8B8B87E790E09E8B13
:1000B0008D8B8CE790E0988F8F8B89E390E09A8FFF
:1000C000898F8EE590E09C8F8B8F89E790E09E8FE3
:1000D0008D8F81E790E098A38F8F8FEF8AB984B9D5
:1000E00080917C00806480937C0080917A0087609E
:1000F00080937A0080917A00806880937A00B2E0E1
:10010000BE016F5F7F4F40ED57E0A4E080917A0021
:10011000806480937A0080917A0086FDFCCF2091E4
:10012000780030917900B5B9E22FF0E0EF70F0700F
:10013000EE0FFF1FE60FF71F808180958BB9CA0174
:100140000197F1F7A5B922952F70E22FF0E0EE0F9D
:10015000FF1FE60FF71F808180958BB9CA010197B9
:08016000F1F7D4CFF894FFCFB2
:00000001FF
