:1000000019C020C01FC01EC01DC01CC01BC01AC00C
:1000100019C018C017C016C015C014C013C012C034
:1000200011C010C00FC00EC00DC00CC00BC00AC064
:1000300009C008C011241FBECFEFD4E0DEBFCDBF82
:1000400002D087C0DDCF0F931F93DF93CF93CDB73F
:10005000DEB7A0970FB6F894DEBF0FBECDBF8FE31B
:1000600090E09A83898386E090E09C838B838BE584
:1000700090E09E838D838FE490E098878F8386E65F
:1000800090E09A8789878DE690E09C878B878DE743
:1000900090E09E878D8787E090E0988B8F878FE731
:1000A00090E09A8B898B8FE690E09C8B8B8B87E717
:1000B00090E09E8B8D8B8CE790E0988F8F8B89E3FF
:1000C00090E09A8F898F8EE590E09C8F8B8F89E7E7
:1000D00090E09E8F8D8F81E790E098A38F8F8FEFB8
:1000E0008AB984B920E030E0DE01119664EC79E051
:1000F00002E014E040E050E02F3F310519F014F029
:1001000020E030E005B9F901EF70F070EE0FFF1F4D
:10011000EA0FFB1F808180958BB9CB010197F1F726
:1001200015B9F90194E0F595E7959A95E1F7EE0F89
:10013000FF1FEA0FFB1F808180958BB9CB010197D0
:10014000F1F74F5F5F4F42335105B1F62F5F3F4FDD
:06015000D1CFF894FFCFAF
:00000001FF
