:1000000019C020C01FC01EC01DC01CC01BC01AC00C
:1000100019C018C017C016C015C014C013C012C034
:1000200011C010C00FC00EC00DC00CC00BC00AC064
:1000300009C008C011241FBECFEFD4E0DEBFCDBF82
:1000400002D0A0C0DDCFBF92CF92DF92EF92FF929D
:100050000F931F93DF93CF93CDB7DEB764970FB69F
:10006000F894DEBF0FBECDBF8FE390E09A83898303
:1000700086E090E09C838B838BE590E09E838D836C
:100080008FE490E098878F8386E690E09A8789874F
:100090008DE690E09C878B878DE790E09E878D872B
:1000A00087E090E0988B8F878FE790E09A8B898B21
:1000B0008FE690E09C8B8B8B8FEF84B98AB920E020
:1000C00030E06E010894C11CD11C54ECE52E59E0BF
:1000D000F52E42E0B42E44E000E010E02436310575
:1000E00014F020E030E0B5B8C9016AE070E023D038
:1000F000FC01EE0FFF1FEC0DFD1D808180958BB97B
:10010000C7010197F1F745B9C9016AE070E013D062
:10011000FB01EE0FFF1FEC0DFD1D808180958BB95B
:10012000C7010197F1F70F5F1F4F02331105B1F6B9
:100130002F5F3F4FD1CF97FB092E07260AD077FDBF
:1001400004D00CD006D000201AF4709561957F4F32
:100150000895F6F7909581959F4F0895AA1BBB1BB4
:1001600051E107C0AA1FBB1FA617B70710F0A61BB7
:10017000B70B881F991F5A95A9F780959095BC01D8
:08018000CD010895F894FFCFB2
:00000001FF
