:1000000019C020C01FC01EC01DC01CC01BC01AC00C
:1000100019C018C017C016C015C014C013C012C034
:1000200011C010C00FC00EC00DC00CC00BC00AC064
:1000300009C008C011241FBECFEFD4E0DEBFCDBF82
:100040008FD03CC1DDCF2F923F92F10181818F3F54
:1000500011F4108202C081E0808340E050E0A5E30B
:1000600080819181890F818320E030E0682F70E0EA
:100070002617370714F42B9A05C085B195B189234B
:10008000877F85B98A2F8A95F1F72F5F3F4F2F3FE2
:10009000310571F74F5F5F4F4F3F510509F73F90B3
:1000A0002F9008952F923F92F1018381882311F4BC
:1000B000128202C08FEF828340E050E0A5E382818C
:1000C0009381890F838320E030E0682F70E026174A
:1000D000370714F42A9A05C085B195B189238B7F1F
:1000E00085B98A2F8A95F1F72F5F3F4F2F3F310552
:1000F00071F74F5F5F4F4F3F510509F73F902F90CA
:1001000008952F923F92F1018181882311F410828A
:1001100002C08FEF808340E050E0A5E380819181B1
:10012000890F818320E030E0682F70E026173707C1
:1001300014F42B9A05C085B195B18923877F85B9C1
:100140008A2F8A95F1F72F5F3F4F2F3F310571F7C7
:100150004F5F5F4F4F3F510509F73F902F90089534
:100160002F923F92DF92EF92FF920F931F93DF93B4
:10017000CF9300D000D000D0CDB7DEB71E821A8258
:100180001C8281E089838B838FEF84B985B9DD245C
:10019000DA9485E3F82E8E010F5F1F4FEE24E3946F
:1001A0008E81882341F41D826D81762F780FE72F91
:1001B00040E050E002C0DD82F7CF20E030E0AE2F1B
:1001C000B0E02A173B0714F4299A05C085B195B110
:1001D00089238D7F85B98F2D8A95F1F72F5F3F4F4A
:1001E0002F3F310571F74F5F5F4FE60F4F3F5105CE
:1001F00021F7660F761B7E83180183DF53DF23DF31
:100200008C818F3F41F41B826B81762F780FE72F13
:1002100040E050E002C0EB82F7CF20E030E0AE2FAC
:10022000B0E02A173B0714F42A9A05C085B195B1AE
:1002300089238B7F85B98F2D8A95F1F72F5F3F4FEB
:100240002F3F310571F74F5F5F4FE60F4F3F51056D
:1002500021F7660F761B7C83180153DF8E818F3F59
:1002600041F41D826D81762F780FE72F40E050E03A
:1002700002C0ED82F7CF20E030E0AE2FB0E02A17C9
:100280003B0714F4299A05C085B195B189238D7F68
:1002900085B98F2D8A95F1F72F5F3F4F2F3F31059D
:1002A00071F74F5F5F4FE60F4F3F510521F7660F24
:1002B000761B7E831801F6DEC6DE72CFF894FFCF80
:00000001FF
