:1000000019C020C01FC01EC01DC01CC01BC01AC00C
:1000100019C018C017C016C015C014C013C012C034
:1000200011C010C00FC00EC00DC00CC00BC00AC064
:1000300009C008C011241FBECFEFD4E0DEBFCDBF82
:1000400022D0DDC0DDCF2F923F92F10121E030E0E0
:1000500002C0220F331F8A95E2F7322F309540E01D
:100060000CC0842F90E0861797071CF485B183237A
:1000700002C085B1822B85B94F5F4F3F91F7468310
:100080003F902F9008952F923F92CF92DF92EF9260
:10009000FF920F931F93DF93CF93CDB7DEB72797D0
:1000A0000FB6F894DEBF0FBECDBF1E821C821A822F
:1000B00081E08D838B8389838FEF84B900E010E02A
:1000C0007E010894E11CF11CCC24C394DD24DA9455
:1000D0006E81170181E090E070E0B5DF6C8183E014
:1000E00090E070E0B0DF6A8182E090E070E0ABDF2A
:1000F0000130110509F54E81442311F4CD8203C06E
:100100004F3F09F41D823D812C81222311F4CB82C3
:1001100003C02F3F09F41B828B819A81992311F42C
:10012000C98203C09F3F09F41982340F3E83820FB6
:100130008C838981890F8A830230110551F49A8159
:100140009B3F08F0D982992309F419828981890F8C
:100150008A830330110551F49C819B3F08F0DB82B8
:10016000992309F41B828B81890F8C83043011053C
:1001700061F49A81992311F4C98203C09F3F09F465
:1001800019828981890F8A8318C00530110551F4BD
:100190009E819B3F08F0DD82992309F41D828D81A9
:1001A000890F8E830630110541F49C81992311F447
:1001B000CB821AC09F3FB9F017C00730110551F428
:1001C0009A819B3F08F0D982992309F41982898189
:1001D000890F8A830830110551F49C819B3F08F0F8
:1001E000DB82992309F41B828B81890F8C830A306F
:1001F000110514F000E010E00F5F1F4F69CFF89475
:02020000FFCF2E
:00000001FF
