:1000000019C033C032C031C030C02FC02EC02DC087
:100010002CC02BC02AC080C028C027C026C025C045
:1000200024C023C022C021C020C01FC01EC01DC0CC
:100030001CC01BC011241FBECFEFD4E0DEBFCDBF5C
:1000400011E0A0E0B1E0EAE2F3E002C005900D9219
:10005000A830B107D9F711E0A8E0B1E001C01D92C6
:10006000AB36B107E1F7BCD05EC1CACFDF93CF9307
:1000700000D000D0CDB7DEB79C011A82198211C022
:100080001C821B8205C08B819C8101969C838B8383
:100090008B819C81C297B9F789819A8101969A8355
:1000A000898389819A818217930751F70F900F9066
:1000B0000F900F90CF91DF910895CF93DF93EDE4F0
:1000C000F1E0CDE0D1E0ADE2B1E0119211921992F0
:1000D00019921D921D9281E0EB36F807B1F781E08D
:1000E00090E090934C0180934B0190930C0180938E
:1000F0000B0190932C0180932B019093010180932D
:100100000001909303018093020190930501809375
:100110000401DF91CF9108951F920F920FB60F92B5
:1001200011242F934F935F938F939F93EF93FF939C
:100130004091090150910A01FA01EE0FFF1FE55BA2
:10014000FE4F8081918120910801019711F4216077
:1001500001C02E7F20930801FA01EE0FFF1FE55F1B
:10016000FE4F8081918120910801019711F4226056
:1001700001C02D7F20930801FA01EE0FFF1FE55DFE
:10018000FE4F8081918120910801019711F4246034
:1001900001C02B7F20930801CA01019690930A01A8
:1001A00080930901409720F010920A0110920901F2
:1001B0008091080185B9FF91EF919F918F915F9197
:1001C0004F912F910F900FBE0F901F90189587ECB5
:1001D00087B988E388B98FEF84B987E085B9089536
:1001E000EF92FF920F931F93CF93DF9382E0809360
:1001F0006F008AE08093810080E190E09093890015
:10020000809388005ADF789487EC87B988E388B9AF
:100210008FEF84B987E085B9A0910401B091050101
:100220006091020170910301409100015091010120
:1002300021E030E0E0E4EE2EEFE1FE2E01E010E000
:10024000C0EDD7E033990AC02F5F3F4F243031050E
:1002500010F021E030E0C7010197F1F7349931C087
:100260002230310599F023303105E9F02130310594
:1002700029F54031510510F5FA01EE0FFF1FE55B3E
:10028000FE4F318320834F5F5F4F18C0603171058F
:10029000A8F4FB01EE0FFF1FE55FFE4F1183008303
:1002A0006F5F7F4F0BC0A031B10540F4FD01EE0F31
:1002B000FF1FE55DFE4F118300831196CE0101976C
:1002C000F1F735992CC02230310589F02330310502
:1002D000C9F02130310501F541155105E9F04150D2
:1002E0005040FA01EE0FFF1FE55BFE4F13C0611592
:1002F000710591F061507040FB01EE0FFF1FE55F4B
:10030000FE4F08C0109741F01197FD01EE0FFF1F3F
:10031000E55DFE4F11821082CE010197F1F7CE010B
:0A0320000197F1F78FCFF894FFCF9B
:08032A000100010001001000B8
:00000001FF
