:1000000019C020C01FC01EC01DC01CC01BC01AC00C
:1000100019C018C017C016C015C014C013C012C034
:1000200011C010C00FC00EC00DC00CC00BC00AC064
:1000300009C008C011241FBECFEFD4E0DEBFCDBF82
:1000400022D040C0DDCF2F923F92F10121E030E07D
:1000500002C0220F331F8A95E2F7322F309540E01D
:100060000CC0842F90E0861797071CF485B183237A
:1000700002C085B1822B85B94F5F4F3F91F7408316
:100080003F902F9008952F923F920F931F93DF93ED
:10009000CF930F92CDB7DEB78FEF84B98E010F5F8C
:1000A0001F4F180181E090E066E970E0CCDF83E04B
:1000B00090E066E970E0C7DF82E090E06FEF70E00B
:0800C000C2DFEFCFF894FFCF7F
:00000001FF
